:020000040800F2
:10000000FCFF00203910000031100000311000000A
:1000100031100000311000003110000031100000DC
:1000200031100000311000003110000031100000CC
:1000300031100000311000003110000031100000BC
:1000400031100000311000003110000031100000AC
:10005000311000003110000031100000311000009C
:10006000311000003110000031100000311000008C
:10007000311000003110000031100000311000007C
:10008000311000003110000031100000311000006C
:10009000311000003110000031100000311000005C
:1000A000311000003110000031100000311000004C
:1000B000311000003110000031100000311000003C
:1000C000311000003110000031100000311000002C
:1000D000311000003110000031100000311000001C
:1000E000311000003110000031100000311000000C
:1000F00031100000311000003110000031100000FC
:1001000031100000311000003110000031100000EB
:1001100031100000311000003110000031100000DB
:1001200031100000311000003110000031100000CB
:1001300031100000311000003110000031100000BB
:1001400031100000311000003110000031100000AB
:1001500081B0194900EA0101084600220EE004209E
:1001600022E0082020E010201EE020201CE040209B
:100170001AE0802018E040F2001015E00F49884294
:10018000EDD00F498842ECD00E498842EBD00E49A1
:100190008842EAD00D498842E9D00D498842E8D02A
:1001A0000C498842E7D010460B49096841EA000231
:1001B00009490A6001B0704700FCFFFF00080140D8
:1001C000000C0140001001400014014000180140E3
:1001D000001C0140002001401810024083B0CDF8FF
:1001E00000E000F0FF031A09104603F00F02134667
:1001F00014E0194A02921FE0184A02921CE0184AC1
:10020000029219E0174A029216E0174A029213E08E
:10021000164A029210E0164A02920DE00028E8D039
:100220000128E9D00228EAD00328EBD00428ECD03A
:100230000528EDD00628EED0012212B29A40ADF882
:10024000042002980A46BDF8041000F013F8DDF807
:1002500000E003B0704700BF00080140000C0140FF
:10026000001001400014014000180140001C014032
:100270000020014081B0CDF800E08CB21546774BEC
:1002800000EA03031E461846FFF762FFB4F1FF0FB2
:100290000CD1734B9D4203D14FF033333360D9E01F
:1002A000422D03D14FF044333360D3E04FF6FF7358
:1002B0009C4214D16A4B9D4207D14FF033333360D7
:1002C000341D4FF033332360C4E0422D07D14FF08B
:1002D00044333360341D4FF044332360BAE00021CF
:1002E000002005F001030BB100211DE005F0020321
:1002F00033B105F4C0730BB1082100E0042113E011
:1003000005F0040333B105F020030BB1042100E034
:10031000002109E005F0080333B105F020030BB11B
:100320000C2100E00821FFE74E4B05EA03030BB167
:10033000032009E005F400730BB1022004E005F48A
:1003400080630BB10120FFE705F00C030BB1014303
:10035000FFE704F0FF039BB2002B3BD0376800207F
:100360001FFA84F832462E4608282CD24FF001039B
:1003700003FA00F408EA0403A34222D185004FF0F7
:100380000F03AB40DB4307EA030401FA05F344EA39
:1003900003031D4606F48173B3F5817F05D102F294
:1003A00014044FF001038340236006F08203822B84
:1003B00005D102F210044FF00103834023602F4661
:1003C000FFE7401CD0E717601FFA88F00F46314660
:1003D000164602E00F462946A0B2B0F1FF0F39D908
:1003E000331DD3F800800022082A30D202F208041C
:1003F0004FF0010303FA04F400EA0403A34224D1FA
:1004000095004FF00F03AB40DB4308EA030807FAFF
:1004100005F348EA030801F48173B3F5817F07D13E
:1004200006F2140502F208044FF00103A3402B600A
:1004300001F08203822B07D106F2100502F20804B4
:100440004FF00103A3402B60FFE7521CCCE7331DA4
:10045000C3F80080DDF800E001B0704700FCFFFF4A
:10046000140008000008080081B000F20C021160BE
:1004700000F208021368C3F3000202B9F8E700F2C1
:100480000C02126890B201B07047FFFF81B00023E8
:100490000360CB009BB242EA030304689BB244EAC8
:1004A00003030360051D13141C462B6864F38203C9
:1004B0002B6000F21C0500242B6864F3CB232B6017
:1004C0000124036864F38613036001B07047FFFFE3
:1004D00081B0CDF800E0012252B23E490A6000F23C
:1004E00068010B686FF0006103EA0102144603F033
:1004F0000061C90E0B4602F00041B1F1004F02D17C
:1005000035490A6801E035490A6804F47021090C8C
:100510000E464FF6FF7104EA01010D4604F4401146
:10052000B1F5401F0DD16FF0706102EA01010E4676
:100530002A490A686FF070610A4028490A60324609
:1005400016E004F48011B1F5801F09D14FF00301CA
:10055000B140C94302EA010141F070610A4607E077
:10056000610D090105FA01F1C9430A4042F07062C8
:100570002BB1610D090105FA01F10A43FFE704F00F
:100580000041B1F1004F02D113490A6001E0134963
:100590000A6040F2000A81464FEA8A0109EB010134
:1005A0000968B1F1FF3F10D009F134014FEA8A0325
:1005B000C91809680A4609EB03010968084611468B
:1005C000FFF70CFE0AF1010AE6E7DDF800E001B0F2
:1005D000704700BF000342421C000140040001407C
:1005E00081B0CDF800E081B20348FFF73DFFDDF8B0
:1005F00000E001B0704700BF003C004081B0CDF882
:1006000000E081B20348FFF72FFFDDF800E001B002
:10061000704700BF0030014083B0CDF800E08DF896
:10062000040002910B4C0C4B1C600C4C0C4B1C60DE
:10063000012464B20B4B1C601046FFF749FF029A7D
:100640009DF804100848FFF721FFDDF800E003B033
:10065000704700BFFFFFFFFF1C000020E105000006
:1006600020000020BC034242003C004081B0CDF895
:1006700000E04FF0420289B2FFF7FCFDDDF800E038
:1006800001B0704781B0CDF800E081B20348FFF7B8
:10069000EBFEDDF800E001B0704700BF003800401D
:1006A00081B0CDF800E0044A89B2FFF7E3FDDDF840
:1006B00000E001B0704700BF140008000149086065
:1006C000704700BFB001224201490860704700BF77
:1006D000AC01224201490860704700BFB08122424C
:1006E00001490860704700BFB0812242014908609B
:1006F000704700BFA801224201490860704700BF4F
:100700009401214201490860704700BF9C81214249
:1007100001490860704700BFB88122420149086062
:10072000704700BF8C01224201490860704700BF3A
:10073000988122422D280AD35F2808D8A0F22D01E3
:1007400009B24A0003498918098888B201E04FF6C6
:10075000FF70704704120000002809D3092807D849
:10076000C11C09B24A0004498918098888B201E00D
:100770004FF6FF70704700BF0412000083B0CDF841
:1007800000E08AB2014690B283B2421E90B26BB1D1
:100790000A78D4B2ADF804000291A0B2054C2468E6
:1007A000A0470299BDF80400491CEDE7DDF800E020
:1007B00003B070470000002042F6DF67C0F2000778
:1007C0007F1EFDD100BF00BF00BF00BF00BF70474C
:1007D00000F208010A6808490A60011D0A68074911
:1007E0000A6000F218010A6805490A6000F21C015B
:1007F0000A6804490A607047080000200C000020C5
:10080000100000201400002001490860704700BF5C
:100810009881214201490860704700BF94812242BB
:10082000026803490A60011D0A6802490A607047AC
:10083000000000200400002001490860704700BF4C
:100840009C81214201490860704700BF900121420C
:1008500001490860704700BF8801224201490860D1
:10086000704700BFB481224281B0CDF800E0011D85
:100870000A680168C8B21146034AFFF7CDFE00209E
:10088000DDF800E001B070479811000081B0CDF8AC
:1008900000E0011D0A680168C8B21146034AFFF76B
:1008A000BBFE0020DDF800E001B0704798110000A9
:1008B00081B0CDF800E0A9E0012905D140F2200186
:1008C0006548FFF7D3FE04E040F220016248FFF7DD
:1008D000E7FEBBE0012905D140F208015F48FFF7C0
:1008E000C5FE04E040F208015C48FFF7D9FEADE028
:1008F000012905D144F200015948FFF7B7FE04E091
:1009000044F200015648FFF7CBFE9FE0012905D1D4
:1009100040F200415148FFF7A9FE04E040F20041D7
:100920004E48FFF7BDFE91E0012905D140F60001D8
:100930004A48FFF79BFE04E040F600014748FFF7F6
:10094000AFFE83E0012905D141F200014348FFF7E2
:100950008DFE04E041F200014048FFF7A1FE75E082
:10096000012905D141F200013D48FFF77FFE04E077
:1009700041F200013A48FFF793FE67E0012905D1F3
:1009800040F600013648FFF771FE04E040F6000132
:100990003348FFF785FE59E0012905D140F24001B7
:1009A0002F48FFF763FE04E040F240012C48FFF7B8
:1009B00077FE4BE0012905D140F220012848FFF7DE
:1009C00055FE04E040F220012548FFF769FE3DE0B6
:1009D000012905D140F240012248FFF747FE04E01B
:1009E00040F240011F48FFF75BFE2FE0012905D1CF
:1009F00040F280011B48FFF739FE04E040F280011D
:100A00001848FFF74DFE21E0012020E000283FF4C8
:100A100053AF01283FF45EAF02283FF469AF0328CB
:100A20003FF474AF04283FF47FAF05283FF48AAF4A
:100A300006283FF495AF0728A0D00828ACD0092895
:100A4000B8D00A28C4D00B28D0D0DDE70020DDF8CC
:100A500000E001B0704700BF0008014000100140F5
:100A600000140140000C014081B0CDF800E0A9E085
:100A7000012905D140F210016548FFF7F7FD04E0B8
:100A800040F210016248FFF70BFEBBE0012905D1DF
:100A900040F204015F48FFF7E9FD04E040F2040181
:100AA0005C48FFF7FDFDADE0012905D142F20001F0
:100AB0005948FFF7DBFD04E042F200015648FFF71A
:100AC000EFFD9FE0012905D140F200415148FFF7B9
:100AD000CDFD04E040F200414E48FFF7E1FD91E01A
:100AE000012905D140F600014A48FFF7BFFD04E0A7
:100AF00040F600014748FFF7D3FD83E0012905D107
:100B000041F200014348FFF7B1FD04E041F200016A
:100B10004048FFF7C5FD75E0012905D140F201010C
:100B20003B48FFF7A3FD04E040F201013848FFF71E
:100B3000B7FD67E0012905D140F200413648FFF7D3
:100B400095FD04E040F200413348FFF7A9FD59E06C
:100B5000012905D140F200212F48FFF787FD04E06D
:100B600040F200212C48FFF79BFD4BE0012905D105
:100B700040F200112848FFF779FD04E040F200112F
:100B80002548FFF78DFD3DE0012905D140F24001E8
:100B90002248FFF76BFD04E040F240011F48FFF7D9
:100BA0007FFD2FE0012905D140F280011B48FFF7AE
:100BB0005DFD04E040F280011848FFF771FD21E07F
:100BC000012020E000283FF453AF01283FF45EAF3E
:100BD00002283FF469AF03283FF474AF04283FF4C0
:100BE0007FAF05283FF48AAF06283FF495AF07286A
:100BF000A0D00828ACD00928B8D00A28C4D00B2827
:100C0000D0D0DDE70020DDF800E001B0704700BF84
:100C1000000801400010014000140140000C014098
:100C200001490860704700BFA801224201490860DD
:100C3000704700BFA081224201490860704700BF91
:100C4000A881224201490860704700BFA481224266
:100C500001490860704700BF98812142014908603E
:100C6000704700BFB001224201490860704700BFD1
:100C7000AC01224201490860704700BF8001214257
:100C800081B0CDF800E08B4609E05846FFF7FEFD45
:100C90000AE05846FFF7E8FD06E0012004E00028DE
:100CA000F3D00128F5D0F8E7DDF800E001B0704797
:100CB00082B0CDF800E0C3B2C8B2FFF74DFDADF889
:100CC0000400D8B2FFF748FDBDF8042091B200F04F
:100CD0006FF8DDF800E002B07047FFFF82B0CDF89A
:100CE00000E0C3B2C8B2FFF725FDADF80400D8B2EA
:100CF000FFF720FDBDF8042091B200F059F8DDF8AF
:100D000000E002B07047FFFF81B0CDF800E05FFA6D
:100D100081F95FFA82FA0FE05FFA8AF15FFA89F0EF
:100D2000FFF7A2FE0DE05FFA8AF15FFA89F0FFF7A4
:100D3000BFFD06E0012004E00028EDD00128F2D03C
:100D4000F8E7DDF800E001B07047FFFF81B0CDF8B3
:100D500000E003460846FFF763FD1846FFF738FD3D
:100D60000020094C2468A0470020084C2468A047B4
:100D70000120074C2468A0470120064C2468A047A6
:100D8000DDF800E001B07047080000200C000020F2
:100D9000140000201000002044F67F77C0F21207F4
:100DA0007F1EFDD100BF00BF00BF00BF00BF704766
:100DB00084B0CDF800E0ADF80800ADF80C100023C9
:100DC0002F4A13802F4A13882D4A12889A4253D2F1
:100DD00001ACBDF80C20120A2270631CBDF80C2077
:100DE00002F0FF021A70A31CBDF80820120A1A7044
:100DF000E31CBDF8082002F0FF021A700020224C0C
:100E00002468A04701AA04211046FFF7B7FC01207F
:100E10001D4C2468A04700201C4C2468A047FFF705
:100E2000CBFC0120194C2468A0470020184C2468F2
:100E3000A0470120164C2468A0470020154C2468C8
:100E4000A047FFF7B9FC0120124C2468A0470020FE
:100E50000D4C2468A04701200B4C2468A0470020BB
:100E60000A4C2468A0470120084C2468A047044B82
:100E70001A88521C1A80A5E7DDF800E004B070471C
:100E80001A00002018000020080000201000002098
:100E90000C00002014000020420801490A8070471D
:100EA0001800002081B01CF8019B0BF8019BBBEBE4
:100EB0000A0FF8D101B0704781B01548006840F0C2
:100EC000010113480160134913480160104801688B
:100ED000124801400E4801600D4801686FF48020FF
:100EE00001400B4801600C4801686FF4FE000140AE
:100EF00009480160064801686FF0A05001400448AD
:100F000001604FF000010648016001B0704700BF6A
:100F1000001002400000FFF004100240FFFFF6FE48
:100F20002C10024081B04FF000094FF0000CBDEBD7
:100F30000A0F04DCBDEB0B0F01DBD446EA464BF88D
:100F4000049BBBEB0A0FFAD1BCEB0A0F05DDE246AE
:100F5000D9F800B00BF1040BF1E701B07047FFFFC7
:100F600081B0CDF800E0002202210020FFF7CCFE86
:100F7000002201210020FFF7C7FE002206210020E9
:100F8000FFF7C2FE002207210020FFF7BDFE054843
:100F900001460020FFF774FEFFF7FEFEDDF800E0DB
:100FA00001B07047CC12000081B0CDF800E040F2F3
:100FB000E830FFF771FF41F24F2140F23730FFF781
:100FC000F7FE45214D20FFF789FE3F214020FFF726
:100FD00085FE01210020FFF76BFE02210120FFF7B3
:100FE00067FE03210220FFF763FE04210320FFF7C1
:100FF0005FFEDDF800E001B07047FFFF81B0CDF883
:1010000000E004490448FFF7A1FEDDF800E001B06C
:10101000704700BFD41200006C12000081B002497A
:101020000248016001B0704740190100240000200F
:1010300081B0FEE701B0704700F00CF800F04EF907
:10104000FFF7ECFFFFF78CFFFFF7D8FFFFF7ACFFD0
:10105000FCE7FEE781B0CDF800E0464A464B474C3E
:1010600047494BF68030814206D94648006840F037
:1010700002014448016011E045F6C050814206D9A2
:101080004048006840F001013E48016006E03D48EC
:1010900001686FF0070001403A480160FFF70CFF5C
:1010A0003948036039480460394802EA0001394888
:1010B000016002F0010040B119463648006800F0B6
:1010C0000200002800D1F8E700E0194602F4803061
:1010D00040B10B462F48006800F40030002800D1D2
:1010E000F8E700E00B4602F0805068B1294800683C
:1010F00040F08051274801602648006800F0005009
:10110000002800D1F8E7FFE702F0806078B12148BD
:10111000006840F080611F48016011461A461D4872
:10112000006800F00060002800D1F8E701E01146F7
:101130001A4601F0807070B11648006840F0807166
:101140001448016011461348006800F0007000B9AF
:10115000F9E70A46FFE70C48006800F00C01900030
:1011600000F00C00814200D0F5E7DDF800E001B0AE
:10117000704700BF8100010502841D004406010084
:101180004019010000200240041002402C100240CF
:10119000FFFF0F00001002402A0000002B0000009B
:1011A0002C000000FFFFFFFF000000000000000017
:1011B000000000000000000000000000000000002F
:1011C00000000000000000000000000018080000FF
:1011D00018080000180800000000000000000000CF
:1011E00000000000000000000000000000000000FF
:1011F00000000000000000000000000000000000EF
:10120000001120080003004080083F0006001B0377
:101210000F0326032D033D0307003F032F03401058
:10122000400880047607002823127B0237034F1200
:1012300039004F10390331033D02360340101E00C0
:10124000B0053800B62036243F0033033F4433074F
:101250002D0363103E00B008360C802C80308908C6
:10126000390000240F00810008000000450800003C
:10127000510800005D080000210C0000690C00000E
:101280005D0C0000750C0000390C0000450C0000DE
:101290002D0C0000510C000005070000FFFFFFFFB0
:1012A000FFFFFFFFFFFFFFFFFFFFFFFFFFFFFFFF4E
:1012B000FFFFFFFFFFFFFFFFFFFFFFFFFFFFFFFF3E
:1012C000FFFFFFFFFFFFFFFFFFFFFFFF0700000023
:1012D00004030000E1050000FFFFFFFF00B5DFF899
:1012E00010B0DFF810A0FFF71DFE00BD704700BF73
:1012F0000000002028000020FFFFFFFFFFFFFFFF8E
:00000001FF
