:10000000FCFF0320951500004D1500004D15000064
:100010004D1500004D1500004D1500004D15000058
:100020004D1500004D1500004D1500004D15000048
:100030004D1500004D1500004D1500004D15000038
:100040004D1500004D1500004D1500004D15000028
:100050004D1500004D1500004D1500004D15000018
:100060004D1500004D1500004D1500004D15000008
:100070004D1500004D1500004D1500004D150000F8
:100080004D1500004D1500004D1500004D150000E8
:100090004D1500004D1500004D1500004D150000D8
:1000A0004D1500004D1500004D1500004D150000C8
:1000B0004D1500004D1500004D1500004D150000B8
:1000C0004D1500004D1500004D1500004D150000A8
:1000D0004D1500004D1500004D1500004D15000098
:1000E0004D1500004D1500004D1500004D15000088
:1000F0004D1500004D1500004D1500004D15000078
:100100004D1500004D1500004D1500004D15000067
:100110004D1500004D1500004D1500004D15000057
:100120004D1500004D1500004D1500004D15000047
:100130004D1500004D1500004D1500004D15000037
:100140004D1500004D1500004D1500004D15000027
:100150004D1500004D1500004D1500004D15000017
:100160004D1500004D1500004D1500004D15000007
:100170004D1500004D1500004D1500004D150000F7
:100180004D1500004D1500004D1500004D150000E7
:100190004D1500004D1500004D1500004D150000D7
:1001A0004D1500004D1500004D1500004D150000C7
:1001B0004D1500004D1500004D1500004D150000B7
:1001C0004D1500004D1500004D1500004D150000A7
:1001D0004D1500004D1500004D1500004D15000097
:1001E0004D1500004D1500004D1500004D15000087
:1001F0004D1500004D1500004D1500004D15000077
:080200004D1500004D15000032
:1015940000F00EF8FFF7DCFF00F084F9FFF7EEFF30
:1015A400FFF744FFFFF770FFFFF77EFFFCE7FEE75E
:1013F40081B04FF000094FF0000CBDEB0A0F04DC84
:10140400BDEB0B0F01DBD446EA464BF8049BBBEB68
:101414000A0FFAD1BCEB0A0F05DDE246D9F800B099
:0A1424000BF1040BF1E701B0704773
:1014300081B0CDF800E0002202210020FFF706FF76
:10144000002201210020FFF701FF002206210020D9
:10145000FFF7FCFE002207210020FFF7F7FE0A48F5
:1014600001460020FFF7CAFE40F6FE07C0F23D0726
:101470007F1EFDD100BF00BF00BF00BF00BFDDF871
:0C14800000E001B0704700BF88180000B9
:10124C0081B0CDF800E05FFA81FA5FFA82FB0FE023
:10125C005FFA8BF15FFA8AF0FFF70CFE0DE05FFA94
:10126C008BF15FFA8AF0FFF7CDFE06E0012004E077
:10127C000028EDD00128F2D0F8E7DDF800E001B04D
:02128C007047A9
:100E800081B0CDF800E091E0012904D110215A4849
:100E9000FFF714FE03E010215748FFF7FBFEA5E023
:100EA000012904D101215448FFF708FE03E0012184
:100EB0005148FFF7EFFE99E0012904D101214F4885
:100EC000FFF7FCFD03E001214C48FFF7E3FE8DE056
:100ED000012904D104214A48FFF7F0FD03E0042171
:100EE0004748FFF7D7FE81E0012904D1102144488B
:100EF000FFF7E4FD03E010214148FFF7CBFE75E06A
:100F0000012904D120213E48FFF7D8FD03E020212C
:100F10003B48FFF7BFFE69E0012904D101213948B0
:100F2000FFF7CCFD03E001213648FFF7B3FE5DE09B
:100F3000012904D110213448FFF7C0FD03E010213E
:100F40003148FFF7A7FE51E0012904D140212F4885
:100F5000FFF7B4FD03E040212C48FFF79BFE45E07E
:100F6000012904D180212948FFF7A8FD03E0802151
:100F70002648FFF78FFE39E0012904D104211F48DC
:100F8000FFF79CFD03E004211C48FFF783FE2DE0E2
:100F9000012904D108211948FFF790FD03E0082139
:100FA0001648FFF777FE21E0012020E000283FF4FB
:100FB0006BAF01283FF474AF02283FF47DAF0328E4
:100FC0003FF486AF04283FF48FAF05283FF498AF75
:100FD00006283FF4A1AF0728AAD00828B4D00928D2
:100FE000BED00A28C8D00B28D2D0DDE70020DDF81B
:100FF00000E001B0704700BF00C005400090054010
:101000000080054000B0054000D0054000A005402C
:100ABC0081B0CDF800E0002440F240031BB240F2BC
:100ACC00001212B21A4393B2002210B4FFF706FDC3
:0A0ADC0001B0DDF800E001B0704742
:1004E80082B0CDF800E05FFA81F8D5B29FB29DF8EE
:1004F8000830F54C00EA0404A1462046FFF780FEC8
:10050800F24CA54208D109F580666FEA0805EDB2FC
:1005180034682C40346008E0ED4CA54205D109F55B
:1005280080652C6844EA08042C6040F2010407EA5C
:100538000404A4B234B109F5A2652C6844EA08049D
:100548002C6007E009F5A2666FEA0805EDB2346889
:100558002C40346040F2020407EA0404A4B234B127
:1005680009F214552C6844EA08042C6007E009F2E3
:1005780014566FEA0805EDB234682C40346040F236
:10058800080407EA0404A4B234B109F20C552C6833
:1005980044EA08042C6007E009F20C566FEA0805E3
:1005A800EDB234682C40346040F2100407EA0404C9
:1005B800A4B234B109F5A0652C6844EA08042C609B
:1005C80007E009F5A0666FEA0805EDB234682C402B
:1005D800346040F2200407EA0404A4B234B109F2FA
:1005E80004552C6844EA08042C6007E009F2045614
:1005F8006FEA0805EDB234682C40346040F24004DC
:1006080007EA0404A4B234B109F5A1652C6844EAE8
:1006180008042C6007E009F5A1666FEA0805EDB249
:1006280034682C40346041F2000407EA0404A4B2A0
:10063800012C13D042F2000407EA0404A4B2012CEE
:100648000CD044F2000407EA0404A4B2012C05D03B
:10065800DEB24B46B8B25FFA88F53CE000200026CF
:10066800DAB2BBB207465FFA88F04946082E13D2C1
:1006780020FA06F4E4B204F00104E4B24CB17500C7
:100688002DB2032424B2AC4024B247EA04052F4615
:10069800FFE7761CF6B2E9E701F6C476FD43346855
:1006A8002C40346001F23C56C543EDB234682C400E
:1006B800346001F5A166C543EDB234682C4034605E
:1006C80001F20456C543EDB234682C403460C5B21B
:1006D80098B20B46D6B2002141F2000400EA0404A5
:1006E800A4B23CB300220F46E9B2082A13D221FA79
:1006F80002F4E4B204F00104E4B24CB155002DB2A6
:10070800012424B2AC4024B247EA04052F46FFE78F
:10071800521CD2B2E9E703F6C4752C683C432C603E
:1007280003F5A1652C680C432C603D461F4683B237
:10073800C8B203E01F4683B2E8B20D4642F2000495
:1007480003EA0404A4B26CB30022A8463946082A76
:1007580013D220FA02F4E4B204F00104E4B24CB17A
:1007680055002DB2032424B2AC4024B248EA040553
:10077800A846FFE7521CD2B2E9E701F6C4752C6817
:1007880044EA08042C6001F23C552C6804432C60B0
:1007980001F5A1652C6804432C60F7B20E46C2B27D
:1007A80098B205E00197C2B298B2F7B2A846019E86
:1007B80044F2000400EA0404A4B284B30023D1B2D2
:1007C800082B14D221FA03F4E4B204F00104E4B2D1
:1007D80054B15D002DB2032424B2AC4024B248EADF
:1007E800040422469046FFE75B1CDBB2E8E706F606
:1007F800C4752C6844EA08042C6006F23C552C6841
:100808000C432C6006F5A1652C680C432C6006F29D
:1008180004552C680C432C60FBB2324602E0D1B27E
:100828003246FBB240F2800400EA0404A4B274B178
:1008380040F2400400EA0404A4B22CB102F5A36516
:100848002C680C432C6001E00120FAE006E002F578
:10085800A366CD43EDB234682C40346040F20014F6
:1008680000EA0404A4B22CB102F21C552C680C4313
:100878002C6006E002F21C56CD43EDB234682C40E1
:10088800346040F2002400EA0404A4B2002C3AD0F8
:10089800104CA24240F2000500D001250E4CA242A5
:1008A80040F2000400D0012425400C4CA24240F242
:1008B800000400D001242540094CA24240F2000463
:1008C80000D0012425400DE000F0FFFF00000000EB
:1008D8000100000000C0054000B005400090054040
:1008E80000100640594CA24240F2000400D00124F6
:1008F80005EA04040CB10120A3E002F5A5652C6803
:100908000C432C602AE0524CA24240F2000500D170
:100918000125504CA24240F2000400D10124254395
:100928004D4CA24240F2000400D1012425434B4C17
:10093800A24240F2000400D101242543434CA242C4
:1009480040F2000400D1012445EA040434B102F560
:10095800A566CD43EDB234682C40346040F60004FF
:1009680000EA0404A4B22CB102F5A6652C680C4375
:100978002C6006E002F5A666CD43EDB234682C4043
:10098800346040F2004400EA0404A4B22CB102F539
:1009980084652C680C432C6006E002F58466CD4320
:1009A800EDB234682C4034600BB9002049E00F2BBD
:1009B80001D9012045E0002700208DF80430C3B29A
:1009C80010469DF80420082B12D221FA03F4E4B251
:1009D80004F00104E4B244B19D002DB24FF00F04BD
:1009E800AC4047EA04052F46FFE75B1CDBB2EAE7A9
:1009F80000F22C56FD4334682C4034600026002356
:100A08008DF80430CBB29DF80410082913D223FACC
:100A180001F4E4B204F00104E4B24CB1D5B28C00A4
:100A280024B205FA04F446EA040425462E46FFE7F4
:100A3800491CC9B2E9E700F22C552C6834432C60F4
:100A48000020DDF800E002B0704700BF005006400B
:100A580000C0054000B00540009005400010064069
:1002080081B0664900EA010108467DE06449096851
:1002180041F0010262490A60BEE06149096841F0A3
:1002280002025F490A60B7E05D49096841F00402CB
:100238005B490A60B0E05A49096841F00802584928
:100248000A60A9E05649096841F0100254490A6059
:10025800A2E05349096841F0200251490A609BE035
:100268004F49096841F040024D490A6094E04C4901
:10027800096841F080024A490A608DE048490968E6
:1002880041F4807246490A6086E04549096841F4AC
:10029800007243490A607FE04149096841F480627D
:1002A8003F490A6078E03E49096841F400623C49E8
:1002B8000A6071E03A49096841F4805238490A6095
:1002C8006AE03749096841F4005235490A6063E039
:1002D8003349096841F4804231490A605CE0304999
:1002E800096841F400422E490A6055E02C49096822
:1002F80041F480322A490A604EE02949096841F4EC
:10030800003227490A6047E0264988423FF47EAF19
:10031800254988423FF481AF244988423FF484AF9D
:10032800234988423FF487AF224988423FF48AAF85
:10033800214988423FF48DAF204988423FF490AF6D
:100348001F4988423FF493AF1E4988423FF496AF55
:100358001D4988423FF499AF1C4988423FF49CAF3D
:100368001B4988423FF49FAF1A4988423FF4A2AF25
:10037800194988423FF4A5AF184988423FF4A8AF0D
:10038800174988423FF4ABAF164988423FF4AEAFF5
:10039800154988423FF4B1AF01B0704700F0FFFF44
:1003A80008E60F40008005400090054000A0054089
:1003B80000B0054000C0054000D0054000E0054001
:1003C80000F00540000006400010064000200640EE
:1003D80000300640004006400050064000600640DD
:0C03E800007006400080064000900640B7
:100C940081B0CDF800E0002440F240031BB240F2E2
:100CA400001212B21A4393B2012210B4FFF71AFCD5
:0A0CB40001B0DDF800E001B0704768
:1010100081B0CDF800E091E0012904D120215A48A7
:10102000FFF74CFD03E020215748FFF733FEA5E012
:10103000012904D102215448FFF740FD03E00221B9
:101040005148FFF727FE99E0012904D120214F489C
:10105000FFF734FD03E020214C48FFF71BFE8DE035
:10106000012904D104214A48FFF728FD03E00421A7
:101070004748FFF70FFE81E0012904D110214448C1
:10108000FFF71CFD03E010214148FFF703FE75E068
:10109000012904D120213E48FFF710FD03E0202163
:1010A0003B48FFF7F7FD69E0012904D102213948E7
:1010B000FFF704FD03E002213648FFF7EBFD5DE09A
:1010C000012904D140213348FFF7F8FC03E0402117
:1010D0003048FFF7DFFD51E0012904D110212E48EF
:1010E000FFF7ECFC03E010212B48FFF7D3FD45E0B0
:1010F000012904D120212848FFF7E0FC03E020214A
:101100002548FFF7C7FD39E0012904D104211F4814
:10111000FFF7D4FC03E004211C48FFF7BBFD2DE0E2
:10112000012904D108211948FFF7C8FC03E0082170
:101130001648FFF7AFFD21E0012020E000283FF432
:101140006BAF01283FF474AF02283FF47DAF032852
:101150003FF486AF04283FF48FAF05283FF498AFE3
:1011600006283FF4A1AF0728AAD00828B4D0092840
:10117000BED00A28C8D00B28D2D0DDE70020DDF889
:1011800000E001B0704700BF00C00540009005407E
:0C1190000080054000B0054000A00540B4
:1011FC0081B0CDF800E009E00846FFF725FE0AE0D3
:10120C000846FFF70BFE06E0012004E00028F3D0AF
:0E121C000128F5D0F8E7DDF800E001B07047DA
:100E540081B0CDF800E000F208010B68011D0A68BA
:100E64000168084691B29AB2034BFFF745FE002091
:0C0E7400DDF800E001B07047E41600005B
:100AFC008AB0CDF800E008901846ADF824200DF12E
:100B0C00140B0BF10B0ADFF82CC1FFF7DDFCADF871
:100B1C000410FFF78FFCBDF8041001256DB2464C94
:100B2C002560464C206800256DB2454C2560454C2F
:100B3C002160BDF82450444C2560444D444C256044
:100B4C00444D454C2560FFF76FFC40F2E83400FB48
:100B5C0004F5089CB5FBF4F4029429B9029C022C10
:100B6C0001DA0224029404E0029C0C2C01DA0C241D
:100B7C000294022424B2ADF81040BDF91040B4F137
:100B8C00FF0F41DA002212B210B2B0F5807F30DADA
:100B9C00BDF91050441C24B26543029C641B0394A1
:100BAC00002C04DA039D4FF0FF346C43039410B90E
:100BBC00039C069404E0039D069CAC4200DA18E00A
:100BCC00039D059CAC4202DC039C04B107E0039C32
:100BDC000594BDF910408DF81C408DF81D00059C46
:100BEC001CB901248DF81E4003E0441C22B210B243
:100BFC00CBE79DF81E40012C00D105E0BDF910405B
:100C0C00A41CADF81040B8E79DF81C50134C25609F
:100C1C009DF81D4025022DB20B4C246844EA0505B5
:100C2C00094C256001256DB2054C2560DDF800E00E
:100C3C000AB070479418000080C3FC431CE60F40B8
:100C4C00840010420480004000800040F503000046
:100C5C0020000020E90A0000240000201080004041
:1004D40081B01CF8019B0BF8019BBBEB0A0FF8D110
:0404E40001B07047AC
:1004400081B0CDF800E040F2000B82460AF1D801FD
:1004500009788B4539D20C210BFB01F10AEB010124
:100460008C460CF108010978A9B90CF1080109784A
:10047000CCB20CF1060109888BB20CF104010978A9
:10048000CAB2DCF800100846D1B2002210B400F065
:100490002BF801B014E00CF108010978CCB20CF192
:1004A000060109888BB20CF104010978CAB2DCF8A4
:1004B00000100846D1B20F2210B400F015F801B0B8
:1004C0000BF1010B5FFA8BFBC0E7DDF800E001B038
:0204D000704773
:0C04340001480068704700BF1C00002059
:100E280081B0CDF800E000F208010B68011D0A68E6
:100E38000168084691B29AB2034BFFF75BFE0020A7
:0C0E4800DDF800E001B07047E416000087
:10148C0081B0CDF800E004490448FFF787FFDDF890
:10149C0000E001B0704700BFA01800002818000041
:1013A80081B0CDF800E003460846FFF7FDFC18467B
:1013B800FFF7B2FC0020094C2468A0470020084C25
:1013C8002468A0470120074C2468A0470120064C48
:1013D8002468A047DDF800E001B070470C00002049
:0C13E8001400002018000020100000205D
:0C0E040001490860704700BF907FB842B1
:0C0DF80001490860704700BF807FB842CE
:0C0E1C0001490860704700BF807FB242AF
:0C0E100001490860704700BF887FB042B5
:0C11D80001490860704700BF907FB042E2
:0C11CC0001490860704700BF947FB042EA
:0C11F00001490860704700BF807FB642D4
:0C11E40001490860704700BF907FBA42CC
:0C11C00001490860704700BF987FB442EE
:0C11B40001490860704700BF9C7FB442F6
:0C119C0001490860704700BF887FB24224
:0C11A80001490860704700BF8C7FB24214
:0C0DEC0001490860704700BF947FB842C6
:0C0CF00001490860704700BF847FB842D3
:0C0CFC0001490860704700BF947FB242BD
:0C0D080001490860704700BF887FB042BE
:0C0CE40001490860704700BF907FB042DB
:0C0CC00001490860704700BF947FB042FB
:0C0CCC0001490860704700BF847FB642F9
:0C0CD80001490860704700BF987FB642D9
:0C0D140001490860704700BF907FB442A6
:0C0DC80001490860704700BF947FB442EE
:0C0DD40001490860704700BF887FB242F0
:0C0DE00001490860704700BF8C7FB242E0
:100DB000026803490A60011D0A6802490A60704717
:080DC0000000002004000020E7
:100D200000F208010A6808490A60011D0A680749BB
:100D30000A6000F218010A6805490A6000F21C0105
:100D40000A6804490A6070470C0000201400002063
:080D5000100000201800002033
:1014AC0082B0CDF800E02D20FFF7ECFEADF8040083
:1014BC003E20FFF7E7FEBDF8041041F28832FFF73B
:1014CC00F3FE4520FFF7DEFEADF804004D20FFF7DC
:1014DC00D9FEBDF8041040F2E832FFF7E5FE01201A
:1014EC00FFF79EFEADF804000020FFF799FEBDF853
:1014FC00041040F2E832FFF7D7FE40F2E83242F631
:10150C00090141F26D30FFF7CFFE40F2E83240F6B0
:10151C00905140F27B20FFF7C7FE3C20FFF7B2FE54
:10152C00ADF804002D20FFF7ADFEBDF8041040F21D
:0E153C00E832FFF7B9FEDDF800E002B07047BC
:101290002D280AD35F2808D8A0F22D0109B24A00F0
:1012A00003498918098888B200E00020704700BF10
:0412B000C017000063
:1012B40084B0CDF800E0ADF80800ADF80C101423AC
:1012C400B2FBF3F4314B1C700024314B1C702F4BD8
:1012D4001C782F4B1B78A34253D201ADBDF80C30C0
:1012E4001B0A2B706C1CBDF80C3003F0FF03237039
:1012F400AC1CBDF808301B0A2370EC1CBDF8083088
:1013040003F0FF0323700020224C2468A04701ABA4
:1013140004211846FFF71EFD01201E4C2468A04737
:1013240000201D4C2468A047FFF734FD01201A4C0F
:101334002468A0470020194C2468A0470120174CBA
:101344002468A0470020164C2468A047FFF722FD1C
:101354000120134C2468A04700200E4C2468A047A9
:1013640001200C4C2468A04700200B4C2468A047A3
:101374000120094C2468A047054C23785B1C23708A
:10138400A5E7DDF800E004B0704700BF08000020C6
:10139400090000200C000020100000201400002090
:0413A400180000200D
:100D580083B0CDF800E08AB2014690B283B2421E59
:100D680090B26BB10A78D4B2ADF804000291A0B287
:100D7800054C2468A0470299BDF80400491CEDE71A
:0C0D8800DDF800E003B070470000002020
:100AE80081B0CDF800E0FFF781FCDDF800E001B04F
:020AF800704745
:1003F40081B0054908600549096801B9FBE702496C
:10040400086801B0704700BF0880004088011042AE
:100C800081B0CDF800E0FFF7C5FBDDF800E001B072
:020C90007047AB
:1004140081B0054908600549096801B9FBE702494B
:10042400086801B0704700BF08900040880112427C
:100C6C0081B0CDF800E0FFF7F9FEDDF800E001B04F
:020C7C007047BF
:100A680081B0054908600549096801B9FBE70249F1
:100A7800086801B0704700BF08A000408801144210
:100AA80081B0CDF800E0FFF7EBFFDDF800E001B022
:020AB800704785
:100A880081B0054908600549096801B9FBE70249D1
:100A9800086801B0704700BF08B0004088011642DE
:100D980041F67E27C0F206077F1EFDD100BF00BFC7
:080DA80000BF00BF00BF70474F
:10122C00002809D3092807D8C11C09B24A00034970
:10123C008918098888B200E000207047C0170000A8
:1015B40081B0CDF800E0344A344B354C354D364ECD
:1015C4004FF03011354801600021354801606FF05B
:1015D400010003EA000133480160C3F3C00018B9F5
:1015E400FFF7D8FBFFF7D6FBC3F3000018B10121C6
:1015F40049B22D4801602D48864203D92C49274819
:10160400016021E02B48864203D92B49234801601D
:101614001AE04CF25030864203D928491F48016031
:1016240012E047F23050864203D925491B48016035
:101634000AE0B6F57A5F03D922491848016003E04D
:101644004FF03011154801601F4804601F480560C1
:101654006FF0805002EA000111480160012149B293
:101664001B4801601B48016002F0805038B11A48E1
:10167400006800B9FBE7012149B218480160DDF8B0
:1016840000E001B0704700BF0400303311000000D7
:101694001800800000000000C0D40100C0E00F402A
:1016A400B0E00F407CE00F40800FFC43A0860100B7
:1016B400960130008038010055013000D30030001D
:1016C400B20030007100300060E10F4064E10F406F
:1016D4007C16FC437816FC43002DFC437016FC4337
:1015800081B002490248016001B07047C0D4010037
:041590001C0000201B
:08154C0081B0FEE701B0704719
:1015540081B04EF68850CEF20000016841F470016B
:10156400016000BF00BF00BF00BFF1EE100A40F4ED
:0A1574004000E1EE100A01B07047DC
:1018A80000B5DFF810B0DFF810A0FFF79FFD00BD0E
:0C18B800704700BF000000202800002046
:1016E40000800540040040050F0000000080054014
:1016F400100040050F000000008005402000400558
:101704000F000000000000000000000000000000C6
:1017140000000000000000000000000000000000C5
:1017240000000000000000000000000000000000B5
:1017340000000000000000000000000000000000A5
:101744000000000000000000000000000000000095
:101754000000000000000000000000000000000085
:101764000000000000000000000000000000000075
:101774000000000000000000000000000000000065
:101784000000000000000000000000000000000055
:101794000000000000000000000000000000000045
:1017A4000000000000000000000000000000000035
:0C17B40000000000000000000300000026
:1017C0000003004080083F0006001B030F032603B0
:1017D0002D033D0307003F032F0340104008800402
:1017E0007607002823127B0237034F1239004F106F
:1017F000390331033D02360340101E00B0053800A6
:10180000B62036243F0033033F4433072D036310D3
:101810003E00B008360C802C803089083900002446
:081820000F0081000800000028
:10182800050E0000F90D00001D0E0000110E00004D
:10183800D9110000CD110000F1110000E5110000E0
:10184800C1110000B51100009D110000A911000090
:10185800FFFFFFFFFFFFFFFFFFFFFFFFFFFFFFFF90
:10186800FFFFFFFFFFFFFFFFFFFFFFFFFFFFFFFF80
:10187800FFFFFFFFFFFFFFFFFFFFFFFFFFFFFFFF70
:0C18880040420F0000000000C7000000FC
:04189400FFFFFF7FD4
:04189800000000004C
:02189C00020048
:01189E000049
:0818A000E90A0000F503000055
:00000001FF
