:10000000FCFF02202D1C0000E51B0000E51B00008A
:10001000E51B0000E51B0000E51B0000E51B0000E0
:10002000E51B0000E51B0000E51B0000E51B0000D0
:10003000E51B0000E51B0000E51B0000E51B0000C0
:10004000E51B0000E51B0000E51B0000E51B0000B0
:10005000E51B0000E51B0000E51B0000E51B0000A0
:10006000E51B0000E51B0000E51B0000E51B000090
:10007000E51B0000E51B0000E51B0000E51B000080
:10008000E51B0000E51B0000E51B0000E51B000070
:10009000E51B0000E51B0000E51B0000E51B000060
:1000A000E51B0000E51B0000E51B0000E51B000050
:1000B000E51B0000E51B0000E51B0000E51B000040
:1000C000E51B0000E51B0000E51B0000E51B000030
:1000D000E51B0000E51B0000E51B0000E51B000020
:1000E000E51B0000E51B0000E51B0000E51B000010
:1000F000E51B0000E51B0000E51B0000E51B000000
:10010000E51B0000E51B0000E51B0000E51B0000EF
:10011000E51B0000E51B0000E51B0000E51B0000DF
:10012000E51B0000E51B0000E51B0000E51B0000CF
:10013000E51B0000E51B0000E51B0000E51B0000BF
:10014000E51B0000E51B0000E51B0000E51B0000AF
:10015000E51B0000E51B0000E51B0000E51B00009F
:10016000E51B0000E51B0000E51B0000E51B00008F
:10017000E51B0000E51B0000E51B0000E51B00007F
:10018000E51B0000E51B0000E51B0000E51B00006F
:08019000E51B0000E51B000067
:101C2C0000F010F8FFF7DCFF00F0E2FBFFF7EEFF2F
:101C3C0000F09EFBFFF710FFFFF7F4FEFFF73AFFF3
:041C4C00FCE7FEE7CC
:101BA80081B04FF000094FF0000CBDEB0A0F04DCC8
:101BB800BDEB0B0F01DBD446EA464BF8049BBBEBAD
:101BC8000A0FFAD1BCEB0A0F05DDE246D9F800B0DE
:0A1BD8000BF1040BF1E701B07047B8
:101A640081B0CDF800E0002202210020FFF7A4FF9E
:101A7400002201210020FFF79FFF00220621002001
:101A8400FFF79AFF002207210020FFF795FF0A487D
:101A940001460020FFF7B2FF40F6FE07C0F23D0703
:101AA40000BF00BF7F1EFDD100BF00BF00BFDDF837
:0C1AB40000E001B0704700BF6C23000090
:1019BC0081B0CDF800E05FFA81F85FFA82F90FE0B0
:1019CC005FFA89F15FFA88F0FFF7D8F90DE05FFA5A
:1019DC0089F15FFA88F0FFF7B5FA06E0012004E020
:1019EC000028EDD00128F2D0F8E7DDF800E001B0D6
:0219FC00704732
:100D880081B0CDF800E0A9E0012905D14FF00401B8
:100D98006548FFF709FE04E04FF004016348FFF7D8
:100DA80055FEBBE0012905D14FF400615E48FFF70D
:100DB800FBFD04E04FF400615C48FFF747FEADE03F
:100DC800012905D14FF010015948FFF7EDFD04E066
:100DD8004FF010015748FFF739FE9FE0012905D170
:100DE8004FF020015248FFF7DFFD04E04FF02001EB
:100DF8005048FFF72BFE91E0012905D14FF0800103
:100E08004B48FFF7D1FD04E04FF080014948FFF758
:100E18001DFE83E0012905D14FF040014448FFF74A
:100E2800C3FD04E04FF040014248FFF70FFE75E0B4
:100E3800012905D14FF480613F48FFF7B5FD04E073
:100E48004FF480613D48FFF701FE67E0012905D1B5
:100E58004FF400513448FFF7A7FD04E04FF4005168
:100E68003248FFF7F3FD59E0012905D14FF004019D
:100E78003348FFF799FD04E04FF004013148FFF7CC
:100E8800E5FD4BE0012905D14FF008012C48FFF79B
:100E98008BFD04E04FF008012A48FFF7D7FD3DE03D
:100EA800012905D14FF480712548FFF77DFD04E045
:100EB8004FF480712348FFF7C9FD2FE0012905D1C0
:100EC8004FF400711E48FFF76FFD04E04FF4007106
:100ED8001C48FFF7BBFD21E0012020E000283FF47B
:100EE80053AF01283FF45EAF02283FF469AF0328EF
:100EF8003FF474AF04283FF47FAF05283FF48AAF6E
:100F080006283FF495AF0728A0D00828ACD00928B8
:100F1800B8D00A28C4D00B28D0D0DDE70020DDF8EF
:100F280000E001B0704700BF50F00F4040F00F40A4
:100F380090F00F4080F00F4010F00F4000F00F408D
:080F4800D0F00F40C0F00F4093
:1009B00081B0CDF800E0034AFFF7DAFFDDF800E090
:0809C00001B0704704010200C0
:1009700081B0CDF800E0FFF7F1FEDDF800E001B056
:020980007047BE
:10075C0083B0CDF800E006460C4615463046FFF750
:10076C0083FE40F2FF1306EA0300800900262246AE
:10077C002946202E39D24FF0010303FA06F402EA7F
:10078C0004031F46A3422ED104031A4B1C19B300B9
:10079C00E51801952C68184B04EA03032B60174BE2
:1007AC0001EA0304019B1B6843EA0404019B1C60DF
:1007BC0001F48033B3F5803F15D08401104B1B1925
:1007CC001433029301F400333BB1FC43029B1B68CE
:1007DC0003EA0404029B1C6005E0029B1B6843EACD
:1007EC000704029B1C60761CC3E7DDF800E003B035
:1007FC00704700BF009004400000FFFFFFFF0000A7
:04080C0000F00F40A9
:1004740081B040F2FF1100EA01018909084600F247
:1004840009024FF0010101FA02F20449096841EA44
:10049400020202490A6001B0704700BF388004407C
:100A540081B0CDF800E0034AFFF788FFDDF800E03D
:080A640001B070470401040019
:100F500081B0CDF800E0A9E0012905D14FF00801EA
:100F60006548FFF725FD04E04FF008016348FFF7EF
:100F700071FDBBE0012905D14FF400215E48FFF768
:100F800017FD04E04FF400215C48FFF763FDADE07E
:100F9000012905D14FF010015948FFF709FD04E080
:100FA0004FF010015748FFF755FD9FE0012905D18B
:100FB0004FF020015248FFF7FBFC04E04FF0200106
:100FC0005048FFF747FD91E0012905D14FF080011E
:100FD0004B48FFF7EDFC04E04FF080014948FFF774
:100FE00039FD83E0012905D14FF040014448FFF766
:100FF000DFFC04E04FF040014248FFF72BFD75E0B5
:10100000012905D14FF010013F48FFF7D1FC04E062
:101010004FF010013D48FFF71DFD67E0012905D1A4
:101020004FF480713448FFF7C3FC04E04FF4807143
:101030003248FFF70FFD59E0012905D14FF4803107
:101040003348FFF7B5FC04E04FF480313148FFF737
:1010500001FD4BE0012905D14FF400312C48FFF789
:10106000A7FC04E04FF400312A48FFF7F3FC3DE011
:10107000012905D14FF480612548FFF799FC04E070
:101080004FF480612348FFF7E5FC2FE0012905D1EB
:101090004FF400611E48FFF78BFC04E04FF4006141
:1010A0001C48FFF7D7FC21E0012020E000283FF496
:1010B00053AF01283FF45EAF02283FF469AF032825
:1010C0003FF474AF04283FF47FAF05283FF48AAFA4
:1010D00006283FF495AF0728A0D00828ACD00928EF
:1010E000B8D00A28C4D00B28D0D0DDE70020DDF826
:1010F00000E001B0704700BF50F00F4040F00F40DB
:10110000D0F00F40C0F00F4010F00F4000F00F4043
:0811100090F00F4080F00F4049
:101A000081B0CDF800E009E00846FFF785FB0AE069
:101A10000846FFF7A7F906E0012004E00028F3D00C
:0E1A20000128F5D0F8E7DDF800E001B07047CE
:1011180081B0CDF800E0011D0A6801680846114653
:10112800034AFFF79FFC0020DDF800E001B070479C
:04113800E8210000AA
:100A6C0081B0CDF800E003460C4615460648FFF76A
:100A7C0043FF224619462B460348FFF7C3FEDDF819
:0C0A8C0000E001B0704700BF00C0024055
:1009040081B00F49884206D10E4A0F490A600F4A46
:100914000F490A6012E00F49884206D10E4A0A497B
:100924000A600E4A0A490A6008E00D49884205D166
:100934000C4A05490A600C4A05490A6001B070472F
:1009440000C00240350A00002000FF1FFFFFFFFF28
:100954002400FF1F00D00240150A0000FFFFFFFF24
:0C09640000C00A40F5090000FFFFFFFF83
:1008100084B0CDF800E003910146104601900291AA
:100820001846FFF77FFE0299019800F01004240992
:100830002346019002910846FFF76CFF029902914E
:100840000846FFF733FF0299019800F000450C6855
:100850002C430C6000F080450C682C430C600C6845
:1008600044F440540C600D686FF4804405EA0404BD
:100870000C6001F20C059C002E1900F00F05346885
:100880002C43346001F20C059C002E1900F08065A9
:1008900034682C43346001F20C059C002E1900F0E2
:1008A000007534682C43346001F20C059C002E194D
:1008B00000F0807534682C43346001F20C059C0014
:1008C0002E1935686FF0F04405EA0404346001F233
:1008D0000C059C002E1900F00F04E50634682C432B
:1008E00034600191039A0846D9B2FFF741FE01999D
:1008F0000D686FF0010405EA04040C60DDF800E007
:0409000004B0704788
:1005240081B0CDF800E040F2000C83464FEA8C0124
:100534000BEB01010968B1F1FF3F12D00BF134015B
:100544004FEA8C03C91809680A460BEB03010968D2
:1005540008461146FFF760FF0CF1010C1FFA8CFCF2
:0A056400E4E7DDF800E001B07047A5
:10041C0082B0CDF800E080464FEA581202F0070295
:10042C00914608F01F04A24693010D4AD3184FF0D1
:10043C000102A240019218460A46019900F092FA74
:10044C004FEA0933074AD3184FEA8A029C1808F47A
:10045C00E06322681A432260DDF800E002B07047C6
:08046C0000F00F400090044075
:1007140081B00B49884203D1012252B209490A60CF
:100724000949884203D1012252B208490A600849A2
:10073400884203D1012252B206490A6001B07047CF
:1007440000C00240B007904200D00240B40790427B
:0807540000C00A40300690428B
:1006AC0081B002686FF4804102EA010101600168C7
:1006BC0041F00101016000F22C021149116000F2BD
:1006CC0008020021116000F20C024FF0F0411160A1
:1006DC0000F210024FF0F041116000F230020021E4
:1006EC00116000F2340200211160016841F4406194
:1006FC0001600268034942EA0101016001B07047E0
:08070C0000000A9A0140000000
:1005700091B0CDF800E00F9010468DF840100E902D
:1005800001AB1846FFF78EFF4FF0FF330D930023AA
:1005900006930023089301230A9300230B9300235F
:1005A0000593059B042B41D20D9B002B3ED00023CD
:1005B0000793079B102B35D20D9B002B32D00123C4
:1005C0000993099B032B29D20D9B3BB3099C029BEA
:1005D00003FB04F6059B9C00314B1B191D68079B10
:1005E0009C00304B1B191B686B43B6FBF3F4204691
:1005F0000E9BA3420ED30E9B1C1A0C940D9BA34280
:1006000008D90C9B0D93059B0693079B08930B90B1
:10061000099B0A93099B5B1C0993D2E7079B5B1C10
:100620000793C6E7059B5B1C0593BAE70F9B03F294
:100630000C049DF840309B00E5182C681A4B04EA26
:1006400003032B600F9B03F20C049DF840309B00CA
:10065000E5180A9B5B1EDC072B6823432B600F9B6E
:1006600003F20C049DF840309B00E518069B1B0428
:1006700003F440342B6823432B600F9B03F20C04DC
:100680009DF840309B00E518089B03F00F042B6891
:1006900023432B600B98DDF800E011B0704700BFDA
:0C06A0005C2300001C230000F0FFFC7F26
:1004A40081B0CDF800E00446FFF7B0FF40F2E83138
:1004B40000FB01F3194909680A0F1849096801F09A
:1004C4007061090EC8B21549096801F47001090D7B
:1004D400CDB21249096801F47021090CCEB2D1B22F
:1004E400491C09B259430F462360221D411C09B21D
:1004F400B7FBF1F1116004F20802691C09B2B7FB01
:10050400F1F1116004F20C02711C09B2B7FBF1F1B4
:100514001160DDF800E001B0704700BF4480044082
:0C04100001480068704700BF1C00FF1F7F
:100D640081B0CDF800E0011D0A680168084611460B
:100D7400034AFFF727FE0020DDF800E001B07047CA
:040D84007C210000CE
:1009C80081B0CDF800E003460C4615460648FFF70F
:1009D80095FF224619462B460348FFF715FFDDF819
:0C09E80000E001B0704700BF00D00240EA
:101A300081B0CDF800E004490448FFF799FFDDF8D4
:101A400000E001B0704700BF74230000BC2200001A
:1019700081B0CDF800E003460846FFF7C9F91846E4
:10198000FFF79EF90020094C2468A0470020084C6E
:101990002468A0470120074C2468A0470120064C7A
:1019A0002468A047DDF800E001B070470800FF1F81
:0C19B0001000FF1F1400FF1F0C00FF1FA1
:0C0D400001490860704700BF0808FE432E
:0C0D4C0001490860704700BF2C08FE43FE
:0C0D580001490860704700BF1010FE4306
:0C113C0001490860704700BF1410FE431A
:0C11840001490860704700BF1C10FE43CA
:0C11780001490860704700BF1810FE43DA
:0C11900001490860704700BF2800FE43C2
:0C11480001490860704700BF3408FE43F6
:0C116C0001490860704700BF0818FE43EE
:0C11600001490860704700BF0C18FE43F6
:0C11540001490860704700BF2018FE43EE
:0C0D340001490860704700BF2418FE430E
:0C0AD40001490860704700BF0C08FE4399
:0C0AC80001490860704700BF4C08FE4365
:0C0AE00001490860704700BF1018FE4379
:0C0AF80001490860704700BF1418FE435D
:0C0AEC0001490860704700BF1C18FE4361
:0C0A980001490860704700BF1818FE43B9
:0C0AA40001490860704700BF1000FE43CD
:0C0ABC0001490860704700BF2008FE439D
:0C0AB00001490860704700BF4010FE4381
:0C0D040001490860704700BF4410FE4326
:0C0CF80001490860704700BF2810FE434F
:0C0D280001490860704700BF2C10FE431A
:100D1000026803490A60011D0A6802490A607047B7
:080D20000400FF1F1800FF1F73
:100CC00000F208010A6808490A60011D0A6807491C
:100CD0000A6000F218010A6805490A6000F21C0166
:100CE0000A6804490A6070470800FF1F1000FF1FD0
:080CF0000C00FF1F1400FF1FA0
:101AC00084B0CDF800E040F2E830ADF804002D20FD
:101AD000FFF73CFFADF80C003E20FFF737FFBDF8E5
:101AE0000C10BDF80420FFF7B7FE4520FFF72EFFCE
:101AF000ADF80C004D20FFF729FFBDF80C10BDF824
:101B00000420FFF7A9FE0120FFF796FEADF80C00B8
:101B10000020FFF791FEBDF80C10BDF80420FFF780
:101B20009BFEBDF8042042F6090141F26D30FFF73B
:101B300093FEBDF8042040F6905140F27B20FFF761
:101B40008BFE3C20FFF702FFADF80C002D20FFF7C5
:101B5000FDFEBDF80C10BDF80420FFF77DFEBDF8BA
:101B60000400FFF7BFFBBDF80400FFF7B3FCBDF8AE
:101B70000400FFF713FBBDF80400FFF7EBFD40F294
:101B8000F410FFF71FFEBDF80400FFF7B7FDFFF7E5
:101B900053FDBDF80400FFF75BFDFFF74DFDDDF8D9
:061BA00000E004B07047F4
:10194C002D280AD35F2808D8A0F22D0109B24A002D
:10195C0003498918098888B200E00020704700BF4D
:04196C005422000001
:1018580084B0CDF800E0ADF80800ADF80C10142302
:10186800B2FBF3F4314B1C700024314B1C702F4B2E
:101878001C782F4B1B78A34253D201ADBDF80C3016
:101888001B0A2B706C1CBDF80C3003F0FF0323708F
:10189800AC1CBDF808301B0A2370EC1CBDF80830DE
:1018A80003F0FF0323700020224C2468A04701ABFB
:1018B80004211846FFF7D6F901201E4C2468A047DA
:1018C80000201D4C2468A047FFF7EAF901201A4CB4
:1018D8002468A0470020194C2468A0470120174C11
:1018E8002468A0470020164C2468A047FFF7D8F9C1
:1018F8000120134C2468A04700200E4C2468A04700
:1019080001200C4C2468A04700200B4C2468A047F9
:101918000120094C2468A047054C23785B1C2370E0
:10192800A5E7DDF800E004B0704700BF0200FF1F24
:101938000300FF1F0800FF1F0C00FF1F1000FF1F00
:041948001400FF1F69
:100C6C0083B0CDF800E08AB2014690B283B2421E46
:100C7C0090B26BB10A78D4B2ADF804000291A0B274
:100C8C00054C2468A0470299BDF80400491CEDE707
:0C0C9C00DDF800E003B070470400FF1F0B
:100A340081B0CDF800E082B24FF080610348FFF747
:100A44009FFFDDF800E001B0704700BF00C0024026
:1009840081B000F22C044FF00043236000F23404E1
:1009940093B241EA0303236000F22C031C68C4F3FE
:0A09A400C07303B9F8E701B0704713
:100A140081B0CDF800E082B24FF080610348FFF767
:100A2400AFFFDDF800E001B0704700BF00D0024026
:1009F40081B0CDF800E082B24FF080610348FFF788
:100A0400BFFFDDF800E001B0704700BF00C00A403E
:100CA80041F67E27C0F2060700BF00BF7F1EFDD1B8
:080CB80000BF00BF00BF704740
:10183800002809D3092807D8C11C09B24A0003495E
:101848008918098888B200E00020704754220000F7
:1012E40085B0CDF800E0ADF808004D2000F02CFBEF
:1012F40076490988ADF80410BDF8082081B2BDF81C
:10130400040000F0A7FA492000F01EFBADF810001D
:101314004D2000F019FBBDF81010BDF8082000F0B6
:1013240099FA4B2000F010FBADF81000492000F0B2
:101334000BFBBDF81010BDF8082000F08BFA52200A
:1013440000F002FBADF810004B2000F0FDFABDF8F0
:101354001010BDF8082000F07DFA4F2000F0F4FAD8
:10136400ADF81000522000F0EFFABDF81010BDF8EF
:10137400082000F06FFA452000F0E6FAADF81000FE
:101384004F2000F0E1FABDF81010BDF8082000F07D
:1013940061FA4C2000F0D8FAADF81000452000F0B6
:1013A400D3FABDF81010BDF8082000F053FA452018
:1013B40000F0CAFAADF810004C2000F0C5FABDF8F0
:1013C4001010BDF8082000F045FA4B2000F0BCFADC
:1013D400ADF81000452000F0B7FABDF81010BDF8C4
:1013E400082000F037FA542000F0AEFAADF81000EF
:1013F4004B2000F0A9FABDF81010BDF8082000F049
:1014040029FA522000F0A0FAADF81000542000F0A0
:101414009BFABDF81010BDF8082000F01BFA4F200D
:1014240000F092FAADF81000522000F08DFABDF8E9
:101434001010BDF8082000F00DFA4E2000F084FAD8
:10144400ADF810004F2000F07FFABDF81010BDF881
:10145400082000F0FFF9492000F076FAADF81000FA
:101464004E2000F071FABDF81010BDF8082000F00D
:10147400F1F94B2000F068FAADF81000492000F0B3
:1014840063FABDF81010BDF8082000F0E3F941201C
:1014940000F05AFAADF810004B2000F055FABDF8F0
:1014A4001010BDF8082000F0D5F908490988ADF8F6
:1014B4001010412000F048FABDF81010BDF80820C3
:1014C40000F0C8F9DDF800E005B070470000FF1F28
:1014D40085B0CDF800E0ADF80800412000F034FA02
:1014E40053490988ADF80410BDF8082081B2BDF84D
:1014F400040000F0AFF94C2000F026FAADF810001B
:10150400412000F021FABDF81010BDF8082000F0C9
:10151400A1F9502000F018FAADF810004C2000F0AA
:1015240013FABDF81010BDF8082000F093F9482014
:1015340000F00AFAADF81000502000F005FABDF8EA
:101544001010BDF8082000F085F9412000F0FCF9E6
:10155400ADF81000482000F0F7F9BDF81010BDF800
:10156400082000F077F95F2000F0EEF9ADF81000E4
:10157400412000F0E9F9BDF81010BDF8082000F092
:1015840069F94E2000F0E0F9ADF810005F2000F09A
:10159400DBF9BDF81010BDF8082000F05BF9552008
:1015A40000F0D2F9ADF810004E2000F0CDF9BDF8EE
:1015B4001010BDF8082000F04DF94D2000F0C4F9DA
:1015C400ADF81000552000F0BFF9BDF81010BDF8BB
:1015D400082000F03FF95F2000F0B6F9ADF81000E4
:1015E4004D2000F0B1F9BDF81010BDF8082000F04E
:1015F40031F9472000F0A8F9ADF810005F2000F0A1
:10160400A3F9BDF81010BDF8082000F023F908492B
:101614000988ADF81010472000F096F9BDF81010B5
:10162400BDF8082000F016F9DDF800E005B07047B9
:041634000000FF1F94
:10119C0085B0CDF800E0ADF80800002000F046FB6B
:1011AC004C490988ADF80410BDF8082081B2BDF88F
:1011BC00040000F04BFB012000F038FBADF81000F0
:1011CC00002000F033FBBDF81010BDF8082000F033
:1011DC003DFB022000F02AFBADF81000012000F0CE
:1011EC0025FBBDF81010BDF8082000F02FFB0320E4
:1011FC0000F01CFBADF81000022000F017FBBDF84E
:10120C001010BDF8082000F021FB042000F00EFBAC
:10121C00ADF81000032000F009FBBDF81010BDF86C
:10122C00082000F013FB052000F000FBADF81000C7
:10123C00042000F0FBFABDF81010BDF8082000F0F7
:10124C0005FB062000F0F2FAADF81000052000F0C6
:10125C00EDFABDF81010BDF8082000F0F7FA0720E1
:10126C0000F0E4FAADF81000062000F0DFFABDF84B
:10127C001010BDF8082000F0E9FA082000F0D6FAAA
:10128C00ADF81000072000F0D1FABDF81010BDF831
:10129C00082000F0DBFA092000F0C8FAADF81000C5
:1012AC00082000F0C3FABDF81010BDF8082000F0BB
:1012BC00CDFA08490988ADF81010092000F0B6FAEB
:1012CC00BDF81010BDF8082000F0C0FADDF800E001
:0812DC0005B070470000FF1F80
:1017540082B0CDF800E0ADF8040018490988BDF85E
:10176400042088B241F26D3100F074F8BDF8042011
:1017740042F6090141F26D3000F06CF8BDF8042026
:10178400392142F6090000F065F8BDF804200F2164
:10179400392000F05FF8BDF8042040F690510F2086
:1017A40000F058F805490988BDF8042040F6905027
:1017B40000F050F8DDF800E002B070470000FF1FB1
:1017C40083B0CDF800E0ADF8080018490988BDF8E9
:1017D400082088B240F2373100F03CF814202D285C
:1017E40017D2411C09B24A001149891809888BB2E1
:1017F40042000F49891809888DF80400BDF80820B3
:1018040088B299B200F026F89DF80400411CC8B2D1
:10181400E5E706490988BDF8082040F6890000F08C
:1018240019F8DDF800E003B0704700BF0000FF1FA7
:04183400542200003A
:1016FC0082B0CDF800E0ADF804004D2000F020F9E8
:10170C00BDF80410FFF7F8F9492000F019F9BDF8FD
:10171C000410FFF7F1F94B2000F012F9BDF804109A
:10172C00FFF7EAF9522000F00BF9BDF80410FFF7AF
:10173C00E3F94F2000F004F9BDF80410FFF7DCF9D1
:08174C00DDF800E002B0704777
:100B040083B0CDF800E0ADF808001422B1FBF2F395
:100B1400224A13700023224A1370204A1378204A71
:100B240012789A4236D201ABBDF80820120A1A7024
:100B34005B1CBDF8082002F0FF021A700020194C5B
:100B44002468A04701AA0221104600F08DF8012074
:100B5400144C2468A0470020134C2468A04700F0DC
:100B6400A1F80120104C2468A04700200D4C2468F3
:100B7400A04701200B4C2468A04700200A4C24689D
:100B8400A0470120084C2468A047054B1A78521C42
:100B94001A70C2E7DDF800E003B070470200FF1FDF
:0C0BA4000300FF1F0800FF1F0C00FF1FD4
:1016380045F6FE17C0F2622700BF00BF7F1EFDD12E
:0816480000BF00BF00BF7047A6
:1016500082B0CDF800E0ADF80400452000F076F946
:10166000BDF80410FFF7A4FA4C2000F06FF9BDF8A4
:101670000410FFF79DFA452000F068F9BDF804104A
:10168000FFF796FA4B2000F061F9BDF80410FFF760
:101690008FFA542000F05AF9BDF80410FFF788FAC9
:1016A000522000F053F9BDF80410FFF781FA4F20E3
:1016B00000F04CF9BDF80410FFF77AFA4E2000F064
:1016C00045F9BDF80410FFF773FA492000F03EF920
:1016D000BDF80410FFF76CFA4B2000F037F9BDF8A5
:1016E0000410FFF765FA412000F030F9BDF804104E
:0C16F000FFF75EFADDF800E002B0704782
:100BB00083B0CDF800E0ADF808001422B1FBF2F3E9
:100BC000244A13700023244A1370224A1378224ABD
:100BD00012789A423AD201ABBDF80820120A1A7074
:100BE0005B1CBDF8082002F0FF021A7000201B4CAD
:100BF0002468A04701AA0221104600F037F800201F
:100C0000174C2468A0470120154C2468A0470020F9
:100C1000144C2468A04700F047F80120114C2468C8
:100C2000A04700200D4C2468A04701200B4C2468ED
:100C3000A04700200C4C2468A04701200A4C2468DF
:100C4000A047054B1A78521C1A70BEE7DDF800E089
:100C500003B070470200FF1F0300FF1F0800FF1FC3
:0C0C60001000FF1F1400FF1F0C00FF1FFE
:101A500081B01CF8019B0BF8019BBBEB0A0FF8D17E
:041A600001B070471A
:101C500090B072B6974801909748029097480390C9
:101C600097480490974805909748069097480790A2
:101C7000974808909748099097480A9097480B9082
:101C800097480C90974998480D9098480E900D9859
:101C900000F007000F9001F0010050B94CF2205005
:101CA000934908804DF62810088040F2D2119148DF
:101CB00001809148007800F0010050B18F48007811
:101CC00000F0080020B18D49087840F00800087045
:101CD00021E08B48006840F0005189480160894844
:101CE000006800F48070B0B9864801686FF47050E5
:101CF00001EA000040F440718248016081480068B8
:101D000040F480717F4801607E4801686FF4007084
:101D100001407C480160AA217B4801700D9800F0C9
:101D2000100060B9794801786FF060000140774891
:101D3000017077480078012800D0FAE71CE00D9880
:101D400000F01000C0B10E997248814208D960219C
:101D50006E4801706E480078802800D0FAE70BE0EA
:101D60006A4801786FF06000014068480170684877
:101D70000078012800D0FAE70499674801606748B5
:101D800001686FF440200140029800F440200143B4
:101D900062480160624801686FF440300140039876
:101DA00000F4403001435E4801600F9830B10F9855
:101DB000012803D00F98022800D061E0019800F0BC
:101DC000800050B9089800F0400028B10B9800F04E
:101DD0000300002800D100E015E05248006840F4FC
:101DE00000715048016050480168504801404E4819
:101DF0000160069800F0040028B14D4801684B4886
:101E000001404B4801600A994A48017005994A48C7
:101E10000170059800F0040038B14848007800F0DF
:101E20001000002800D1F8E705E04448007800F0F1
:101E3000100000B1F9E74248007800F0BF01C9B2D4
:101E4000069800F0FD0001433D480170079800F03E
:101E5000E0013C48007800F01F0001433948017060
:101E60000199394801700B99384801700F98022880
:101E700005D13348007840F0020131480170B8E0E4
:101E8000019800F0800020B90B9800F0030000B129
:101E900065E02448006840F400712248016022484F
:101EA00001682248014020480160069800F00400C3
:101EB00000F04EB80000000000000C00000001001F
:101EC00000001401220000002400000000000000B7
:101ED00002000000460000000000000000000000BA
:101EE000000000000000000007000000C0D4010056
:101EF0000E2005400020054000F0074002D00740BA
:101F00003C80044010D0034000E0074001E007405F
:101F100003E0074080380100448004400070044022
:101F2000048004403880044048900440FFF8FFFEDD
:101F30004C900440084006400040064006400640E1
:101F40000140064003400640005006400C40064059
:101F500028B17A4801687A480140784801600A99B6
:101F6000784801707848007800F0BF01C9B206983F
:101F700000F0FD000143744801700199734801703D
:101F80000B99734801700F98072805D1059840F008
:101F900080017048017002E005996E480170069852
:101FA00000F0040048B10B9800F0030028B96A481B
:101FB000007800F0020000B9F9E7059800F004008D
:101FC00038B16548007800F01000002800D1F8E72B
:101FD00005E06148007800F0100000B1F9E70798CB
:101FE00000F0E0015D48007800F01F0001435B480D
:101FF0000170089800F0BF0159480170099800F07D
:10200000BF0158480170089800F0400028B15448BA
:10201000007840F04001524801700F98052806D121
:102020004948007840F00201474801701BE00F98D2
:10203000062803D00F98072800D014E049480078FC
:1020400040F04001474801704348007800F04000EC
:1020500000B9F9E70F98072805D13E48007800F04D
:102060003F013C4801700F9818B10F98032800D029
:102070002CE03948007800F00C0000B1F9E73A484C
:10208000006840F00101384801604FF00001374816
:1020900001604FF08001364801604FF0050135487E
:1020A00001604FF00101324801603148006800F0E2
:1020B000800000B9F9E700212D4801602A48016835
:1020C0006FF001000140284801602AE00F980128C4
:1020D00003D00F98022800D007E01F48007800F0D6
:1020E0000C00042800D0F8E71BE00F98042806D065
:1020F0000F98062803D00F98052800D007E016484F
:10210000007800F00C00082800D0F8E709E00F98EC
:10211000072806D11048007800F00C000C2800D0E9
:10212000F8E7154801686FF00F0001400C9800F0C7
:102130000F0001431048016010B070474C900440FC
:10214000FFF8FFFE084006400140064000500640F0
:102150000C40064000400640064006400340064052
:102160000440064005400640388004400800044012
:0C217000000004400400044048800440CB
:101C180081B002490248016001B07047C0D4010098
:041C28001C00FF1F7E
:081BE40081B0FEE701B070477B
:101BEC0081B072B60849086840F47000086000BF04
:101BFC0000BF00BF00BFF1EE100A40F44000E1EE60
:0C1C0C00100A62B601B0704788ED00E0DD
:10237C0000B5DFF814B0DFF814A0DFF814C0FFF7D5
:10238C0061FB00BD704700BF0000FF1F0200FF1F74
:04239C006E050000CA
:1023FC0000B5DFF810B0DFF810A0FFF7CFFB00BD81
:0C240C00704700BF0000FF1F2800FF1FEA
:100400000000000000000000FFFFFFFF02FDFFFFF3
:02056E0000008B
:10217C00650700006707000066070000FFFFFFFF10
:10218C000000000000000000000000000000000043
:10219C000000000000000000000000000000000033
:1021AC00000000000000080000000800000008000B
:1021BC00FFFFFFFF00000000000000000000000017
:1021CC000000000000000000000000000000000003
:0C21DC00000000000000000000000000F7
:1021E800450200004702000046020000FFFFFFFF13
:1021F80000000000000000000000000000000000D7
:1022080000000000000000000000000000000000C6
:10221800000000000000080000000800000008009E
:10222800FFFFFFFF000000000000000000000000AA
:102238000000000000000000000000000000000096
:0C2248000000000000000000000000008A
:102254000003004080083F0006001B030F03260311
:102264002D033D0307003F032F0340104008800463
:102274007607002823127B0237034F1239004F10D0
:10228400390331033D02360340101E00B005380007
:10229400B62036243F0033033F4433072D03631035
:1022A4003E00B008360C802C8030890839000024A8
:0822B4000F008100080000008A
:1022BC00410D00004D0D0000590D00003D110000B6
:1022CC0085110000791100009111000049110000E6
:1022DC006D1100006111000055110000350D00005A
:1022EC00FFFFFFFFFFFFFFFFFFFFFFFFFFFFFFFFF2
:1022FC00FFFFFFFFFFFFFFFFFFFFFFFFFFFFFFFFE2
:10230C00FFFFFFFFFFFFFFFFFFFFFFFFFFFFFFFFD1
:10231C00020000000400000006000000080000009D
:10232C0010000000200000004000000080000000B1
:10233C000001000000020000000400000008000082
:10234C000010000000200000004000000080000091
:10235C000200000003000000050000000700000060
:08236C0040420F000700008051
:08237400350A0000FFFFFFFF26
:00000001FF
