:1000000024EF07F00000000000EF00F00000000007
:0A0010000000000000000000F3D71C
:0C001C004DB002D08B9A01D08B8A1200EC
:0C0028004DB002D08D9201D08D821200EC
:0C0034004DB002D08B9601D08B861200DC
:0C0040004DB002D08A9201D08A821200DA
:0C004C004DB002D08B9E01D08B8E1200B4
:0C0058004DB002D08F9201D08F821200B8
:0C0064004DB002D08B9401D08B841200B0
:0C0070004DB002D08B9801D08B8812009C
:0C007C004DB002D08B9601D08B86120094
:0C0088004DB002D08B9601D08B86120088
:0C0094004DB002D08B9E01D08B8E12006C
:1000A0004DC06AFF016A0150000A05E1000E68B008
:0C00B000010E016EF8D76ACF01F01200BB
:0C00BC004DB002D0899201D08982120060
:0C00C8004DB002D0899801D08988120048
:0C00D4004DB002D08B9801D08B88120038
:0C00E0004DB002D08B9C01D08B8C120024
:0C00EC004DB002D08B9801D08B88120020
:0C00F8004DB002D08A9401D08A8412001E
:0C0104004DB002D08F9001D08F8012000F
:0C0110004DB002D08B9201D08B82120007
:0C011C004DB002D08B9801D08B881200EF
:0C0128004DB002D08B9A01D08B8A1200DF
:0C0134004DB002D08B9601D08B861200DB
:0C0140004DB002D08B9801D08B881200CB
:0C014C004DB002D0899401D089841200CB
:0C0158004DB002D08D9601D08D861200B3
:0C0164004DB002D08B9601D08B861200AB
:0C0170004DB002D08B9C01D08B8C120093
:0C017C004DB002D08F9401D08F8412008F
:0C0188004DB002D08B9A01D08B8A12007F
:0C0194004DB002D08D9401D08D8412007B
:0C01A0004DB002D08B9601D08B8612006F
:0C01AC004DB002D08A9001D08A80120071
:0C01B8004DB002D0899001D08980120067
:0C01C4004DB002D08D9001D08D80120053
:0C01D0004DB002D08B9801D08B8812003B
:1001DC004DC0C9FF016A0150000A05E1000EC7B00D
:0C01EC00010E016EF8D7C9CF01F012001F
:0C01F8004DB002D08B9001D08B80120023
:10020400F250026EF29E0500FF6A0150FE6E00502D
:08021400FD6E02BEF28E120025
:10021C0047C04BF048C04CF049C000F04AC001F058
:10022C00010E495E000E4A5A0050011012E023C024
:10023C00E1FF24C0E2FF4BC0E9FF4CC0EAFFEECF68
:10024C00E6FF21C000F022C001F0D6DF4B4A4C2A59
:04025C00E3D71200D2
:10026000FF0E2F6EFF0E306EFF0E316EFF0E326EE0
:10027000DC0E336E010E346E4D0E356E000E366E92
:10028000949A4750040A02E1948601D09496948887
:10029000C66AC79CC79E4750C6124950C6124850EE
:1002A000C712495205E04A50000AD8B4C78C03D09F
:0A02B0004A52D8A4C78CC68A120077
:1002BA00D00E0C6EC90E0D6E0D2EFED70C2EFCD76D
:0602CA000000000012001C
:1002D000086A096A100E0C6E01340836093604509B
:1002E000085E0550D8A0053C095ED8B007D0045080
:1002F00008260550D8B0053C0926D89000360136AE
:060300000C2EEAD71200EA
:100306003FC0F6FF40C0F7FF41C0F8FF0900F5CF38
:1003160021F00900F5CF22F00900F5CF23F00900FE
:10032600F5CF24F0040E3F24F66E000E4020F76E43
:10033600000E4120F86E0900F5CF1DF00900F5CF3B
:100346001EF00900F5CF1FF00900F5CF20F01200CE
:100356004DD040B002D0929001D092800F012591ED
:100366006AD040B002D0949001D0948064D040B05E
:1003760002D0969001D096805ED040B002D094967E
:1003860001D0948658D040B002D0949801D0948879
:1003960052D040B002D0949A01D0948A4CD040B04A
:1003A60002D0949201D0948246D040B002D093906D
:1003B60001D0938040D040B002D0949E01D0948E5C
:1003C6003AD040B002D0949C01D0948C34D040B046
:1003D60002D0949601D094862ED040B002D0949844
:1003E60001D0948828D0010E006E27D03F50000A15
:1003F600B0E03F50010AB5E03F50020AB8E03F5076
:10040600030ABBE03F50040ABEE03F50050AC1E0C4
:100416003F50060AC4E03F50070AC7E03F50080AAB
:10042600CAE03F50090ACDE03F500A0AD0E03F50EB
:0C0436000B0AD3E0D8D7000E006E1200B5
:100442003FC0F6FF40C0F7FF41C0F8FF0900F5CFFB
:1004520047F0040E3F24F66E000E4020F76E000EA9
:100462004120F86E0900F5CF48F0080E3F24F66EE1
:10047200000E4020F76E000E4120F86E0900F5CF05
:1004820049F00C0E3F24F66E000E4020F76E000E6F
:100492004120F86E0900F5CF4AF0E1DE000E006E51
:0204A200120046
:1004A4003FC0F6FF40C0F7FF41C0F8FF0900F5CF99
:1004B40047F0040E3F24F66E000E4020F76E000E47
:1004C4004120F86E0900F5CF48F0080E3F24F66E7F
:1004D400000E4020F76E000E4120F86E0900F5CFA3
:1004E40049F00C0E3F24F66E000E4020F76E000E0D
:1004F4004120F86E0900F5CF4AF0B0DE000E006E20
:020504001200E3
:100506004DD040B002D0929201D092820F01259335
:100516006AD040B002D0929801D0928864D040B0A0
:1005260002D0969201D096825ED040B002D09496C8
:1005360001D0948658D040B002D0949801D09488C7
:1005460052D040B002D0949A01D0948A4CD040B098
:1005560002D0949401D0948446D040B002D09392B5
:1005660001D0938240D040B002D0949E01D0948EA8
:100576003AD040B002D0949C01D0948C34D040B094
:1005860002D0949601D094862ED040B002D0949892
:1005960001D0948828D0010E006E27D03F50000A63
:1005A600B0E03F50010AB5E03F50020AB8E03F50C4
:1005B600030ABBE03F50040ABEE03F50050AC1E013
:1005C6003F50060AC4E03F50070AC7E03F50080AFA
:1005D600CAE03F50090ACDE03F500A0AD0E03F503A
:0C05E6000B0AD3E0D8D7000E006E120004
:1005F20051D040B002D0929401D092840F0125953F
:100602006ED040B002D0969601D0968668D040B0A7
:1006120002D0969401D0968462D040B002D09496D3
:1006220001D094865CD040B002D0949801D09488D6
:1006320056D040B002D0949A01D0948A50D040B0A3
:1006420002D0989001D098804AD040B002D09394C2
:1006520001D0938444D040B002D0989401D09884C1
:100662000F0123953CD040B002D0989201D09882DD
:100672000F01239334D040B002D0949601D09486D7
:100682002ED040B002D0949801D0948828D0010E88
:10069200006E27D03F50000AACE03F50010AB1E0A3
:1006A2003F50020AB4E03F50030AB7E03F50040A49
:1006B200BAE03F50050ABDE03F50060AC0E03F5095
:1006C200070AC3E03F50080AC6E03F50090ACBE0E0
:1006D2003F500A0AD0E03F500B0AD3E0D8D7000EB1
:0406E200006E120094
:1006E6003FC0F6FF40C0F7FF41C0F8FF0900F5CF55
:1006F60047F0040E3F24F66E000E4020F76E000E03
:100706004120F86E0900F5CF48F0080E3F24F66E3A
:10071600000E4020F76E000E4120F86E0900F5CF5E
:1007260049F00C0E3F24F66E000E4020F76E000EC8
:100736004120F86E0900F5CF4AF08FDD000E006EFD
:0207460012009F
:10074800080E3F24F66E000E4020F76E000E412082
:10075800F86E0900F5CF2BF00900F5CF2CF0090051
:10076800F5CF2DF00900F5CF2EF0040E3F24F66EDC
:10077800000E4020F76E000E4120F86E0900F5CFFC
:1007880019F00900F5CF1AF00900F5CF1BF00900A0
:10079800F5CF1CF0180E3F24F66E000E4020F76EC1
:1007A800000E4120F86E0900F5CF27F00900F5CFBB
:1007B80028F00900F5CF29F00900F5CF2AF01C0E22
:1007C8003F24F66E000E4020F76E000E4120F86EB2
:1007D8000900F5CF15F00900F5CF16F00900F5CF9F
:0A07E80017F00900F5CF18F0120019
:1007F2002D0E3F5C27E33F505F0824E32D0E3F5C44
:10080200056E066A000E065A05C000F006C001F029
:10081200000E06BEFF0E026E036E00360090013619
:1008220002360336520E0024F66E0E0E0120F76ECB
:10083200000E0220F86E0900F5CF00F00900F5CF96
:0A08420001F002D0006A016A120002
:10084C00140E046E000E056E41C000F042C001F0A3
:10085C0039DD00C026F0256A2650255CD8B095D02D
:10086C00436A446A40C000F0016A00C045F0FF0EC4
:10087C003F14466E2DC0E1FF2EC0E2FFE66A2BC08E
:10088C0000F02CC001F0B8DC430E476E000E486E31
:10089C00040E496E000E4A6EBBDC2DC0E1FF2EC06B
:1008AC00E2FF010EE66E2BC000F02CC001F0A4DCC0
:1008BC0029C0E1FF2AC0E2FFE66A27C000F028C089
:1008CC0001F09ADCF4DC29C0E1FF2AC0E2FF010E42
:1008DC00E66E27C000F028C001F08EDC1BC0E1FFE3
:1008EC001CC0E2FFE66A19C000F01AC001F084DCFB
:1008FC001BC0E1FF1CC0E2FF010EE66E19C000F048
:10090C001AC001F079DC17C0E1FF18C0E2FFE66AFB
:10091C0015C000F016C001F06FDCC9DC17C0E1FF98
:10092C0018C0E2FF010EE66E15C000F016C001F013
:10093C0063DC2DC0E1FF2EC0E2FFE66A2BC000F0A5
:10094C002CC001F059DC2DC0E1FF2EC0E2FF010EDE
:10095C00E66E2BC000F02CC001F04EDC29C0E1FF8C
:10096C002AC0E2FFE66A27C000F028C001F044DC90
:10097C0029C0E1FF2AC0E2FF010EE66E27C000F09D
:0C098C0028C001F039DC252A67D71200D2
:10099800140E046E000E056E41C000F042C001F056
:1009A80093DC00C026F0256A2650255CD8B0A0D07C
:1009B80040C000F0016A00C043F0FF0E3F14446ECF
:1009C800456A466A2DC0E1FF2EC0E2FFE66A2BC0E9
:1009D80000F02CC001F012DC430E476E000E486E8A
:1009E800040E496E000E4A6E15DC2DC0E1FF2EC0C4
:1009F800E2FF010EE66E2BC000F02CC001F002EC05
:100A080001F029C0E1FF2AC0E2FFE66A27C000F032
:100A180028C001F002EC01F04CDC29C0E1FF2AC03B
:100A2800E2FF010EE66E27C000F028C001F002ECDC
:100A380001F01BC0E1FF1CC0E2FFE66A19C000F02C
:100A48001AC001F002EC01F01BC0E1FF1CC0E2FF7C
:100A5800010EE66E19C000F01AC001F002EC01F0B8
:100A680017C0E1FF18C0E2FFE66A15C000F016C023
:100A780001F002EC01F01DDC17C0E1FF18C0E2FF35
:100A8800010EE66E15C000F016C001F002EC01F090
:100A98002DC0E1FF2EC0E2FFE66A2BC000F02CC09B
:100AA80001F002EC01F02DC0E1FF2EC0E2FF010EC3
:100AB800E66E2BC000F02CC001F002EC01F029C05A
:100AC800E1FF2AC0E2FFE66A27C000F028C001F073
:100AD80002EC01F029C0E1FF2AC0E2FF010EE66E38
:100AE80027C000F028C001F002EC01F0252A5CD7ED
:020AF8001200EA
:100AFA00520E0B6E2B0E0C6E000E0D6E0D2EFED7C7
:0C0B0A000C2EFCD70B2EFAD700001200B6
:100B16001BD03AC03FF03BC040F03CC041F0E0DDA6
:100B26001DD03AC03FF03BC040F03CC041F0B7DCBE
:100B360015D03AC03FF03BC040F03CC041F07EDCEF
:100B46000DD0010E006E0AD03950000AE2E039508D
:0E0B5600010AE7E03950020AECE0F3D7120082
:100B640016D03AC03FF03BC040F0ABEC01F019D0D6
:100B74003AC03FF03BC040F0C4DC13D03AC03FF071
:100B84003BC040F034DD0DD0010E006E0AD0395068
:100B9400000AE7E03950010AEBE03950020AEEE0BE
:040BA400F3D7120071
:100BA8004D0E3F6E22DE00C03FF001C040F039C05C
:100BB80041F03AC042F046DE490E3F6E16DE00C0F4
:100BC8003FF001C040F039C041F03AC042F03ADE8F
:100BD8004B0E3F6E0ADE00C03FF001C040F039C046
:100BE80041F03AC042F02EDE520E3F6EFEDD00C0EC
:100BF8003FF001C040F039C041F03AC042F022DE77
:100C08004F0E3F6EF2DD00C03FF001C040F039C02A
:0A0C180041F03AC042F016DE12006F
:100C22003CC03FF03DC040F03EC041F083EC01F0DB
:100C320039C03FF03AC040F03BC041F084DD2DC0E6
:100C4200E1FF2EC0E2FFE66A2BC000F02CC001F0EB
:100C520002EC01F01BC0E1FF1CC0E2FFE66A19C012
:100C620000F01AC001F002EC01F017C0E1FF18C059
:100C7200E2FF010EE66E15C000F016C001F002ECB4
:100C820001F029C0E1FF2AC0E2FF010EE66E27C093
:0C0C920000F028C001F002EC01F012009C
:100C9E00450E3F6EA7DD00C03FF001C040F039C0E9
:100CAE0041F03AC042F071DE4C0E3F6E9BDD00C04B
:100CBE003FF001C040F039C041F03AC042F065DE6D
:100CCE00450E3F6E8FDD00C03FF001C040F039C0D1
:100CDE0041F03AC042F059DE4B0E3F6E83DD00C04C
:100CEE003FF001C040F039C041F03AC042F04DDE55
:100CFE00540E3F6E77DD00C03FF001C040F039C0AA
:100D0E0041F03AC042F041DE520E3F6E6BDD00C044
:100D1E003FF001C040F039C041F03AC042F035DE3C
:100D2E004F0E3F6E5FDD00C03FF001C040F039C096
:100D3E0041F03AC042F029DE4E0E3F6E53DD00C048
:100D4E003FF001C040F039C041F03AC042F01DDE24
:100D5E00490E3F6E47DD00C03FF001C040F039C084
:100D6E0041F03AC042F011DE4B0E3F6E3BDD00C04B
:100D7E003FF001C040F039C041F03AC042F005DE0C
:100D8E00410E3F6E2FDD00C03FF001C040F039C074
:0A0D9E0041F03AC042F0F9DD120006
:100DA800396A020E3A6E3B6AD9DE396A010E3A6E2A
:100DB8003B6AD4DE396A060E3A6E3B6ACFDE396A80
:100DC800070E3A6E3B6ACADE396A1A0E3A6E0F0E81
:100DD8003B6E000E3C6E9BDE090E0B6E1E0E0C6EFB
:100DE800E40E0D6E0D2EFED70C2EFCD70B2EFAD767
:040DF80000001200E5
:100DFC000900F5CFE6FF0006FBE10106F9E1120060
:100E0C00E80E376E030E386EE80E396E030E3A6E2E
:100E1C00C5DE37C039F038C03AF03BDF68DE12006F
:100E2C00BA0E396E0E0E3A6E000E3B6E2A0E3C6EEA
:0C0E3C000F0E3D6E000E3E6EEEDE12004A
:0A0E4800AFDFF0DFDFDFFED7FFD7DA
:100E52000003004080083F0006001B030F03260327
:100E62002D033D0307003F032F0340104008800479
:100E72007607002823127B0237034F1239004F10E6
:100E8200390331033D02360340101E00B00538001D
:100E9200B62036243F0033033F4433072D0363104B
:100EA2003E00B008360C802C8030890839000024BE
:080EB2000F00810008000000A0
:100EBA00B8014D00F8014D00C4014D007C004D0001
:100ECA00EC004D0088014D0010014D00AC014D00B1
:100EDA0094004D00E0004D0034004D00D4004D0058
:100EEA00FFFFFFFFFFFFFFFFFFFFFFFFFFFFFFFF08
:100EFA00FFFFFFFFFFFFFFFFFFFFFFFFFFFFFFFFF8
:100F0A00FFFFFFFFFFFFFFFFFFFFFFFFFFFFFFFFE7
:100F1A0002000000000000000000000001000000C4
:080F2A00DC014D00FFFFFFFF99
:020000040030CA
:0E00000015137F7CF98B91FFFFC0FFE0FF40DE
:00000001FF
